:020000040000FA
:1000000038020020C100000079060000A1030000B2
:10001000FFFFFFFFFFFFFFFFFFFFFFFFFFFFFFFFF0
:10002000FFFFFFFFFFFFFFFFFFFFFFFF7D06000059
:10003000FFFFFFFFFFFFFFFF7B0600007F060000C2
:1000400035010000350100003501000035010000D8
:1000500035010000350100003501000035010000C8
:1000600035010000350100003501000035010000B8
:1000700035010000350100003501000035010000A8
:1000800035010000250200003501000035010000A7
:100090003501000035010000350100003501000088
:1000A0003501000035010000350100003501000078
:1000B0003501000035010000350100003501000068
:1000C0001D4880471D4880471D4800471D4801695D
:1000D000002908D14169002905D18169002902D18F
:1000E000C169002909D01848C1680901090D002912
:1000F0000ED005290CD006290AD0BFF34F8F134824
:100100001349016013491248C860BFF34F8FFEE7DF
:100110000E4801680E48884200D070470E480F49CB
:1001200001600A480E4901607047FEE7FEE7FEE7FE
:10013000FEE7FEE7FEE70000CD00000081060000BC
:100140006501000000030840800108400000002015
:100150000400FA0500ED00E0008108400100000005
:10016000000000000448854600F01EF800480047E3
:10017000B5070000C046C0463802002030B50B4627
:10018000014600202022012409E00D46D5409D4271
:1001900005D31D469540491B2546954040191546F7
:1001A000521E002DF1DC30BD064C0125064E05E047
:1001B000E36807CC2B430C3C98471034B442F7D388
:1001C000FFF7D4FFA00A0000C00A0000F0B5964671
:1001D0000A461349C000461800230025FF20984016
:1001E0002C46104216D00020012199408C46114621
:1001F000C1406746394206D087000F21B9400D4300
:100200007146B9400C43401C0828F0D33068A8431D
:10021000204330600833361D082BDEDDF0BD0000C2
:100220002020024010B5044800F00AF80348016895
:10023000491C016010BD0000006007401000002054
:100240004168490849004160BFF34F8F7047000083
:1002500070B5134E0446706B45076D0F00F024F81F
:10026000104920602B0000F073FA081405070714EA
:10027000140E1114606000E06160306A05280AD332
:100280006068410909E00120C003F3E77D20000216
:10029000F0E70020EEE76168C140A16070BD00009A
:1002A0000080084000127A000D4A1068D069C10F22
:1002B0005068400AC007C00F11D00A489369DB009C
:1002C000DB0FD84000290AD19169C90D0907090F30
:1002D00000D1102192695202920F4843D0407047DA
:1002E0000080084000127A001EB542090A4B9200B5
:1002F0000021D2182E2800D10221C006C00E12689B
:10030000032383401A40C24054186846FFF7A0FFF9
:100310000298E0401EBD000038800840F0B5084F4C
:100320007C6AFD6A3E6B84438D439643002B02D06A
:1003300004430D4316437C62FD623E63F0BD000042
:100340000080084000B5024B024A00F017F800BDDB
:10035000A0080000FFFF000081627047002A0268C9
:1003600001D00A4300E08A4302607047416270474F
:10037000002A01D0416270478162704730B504465F
:10038000104607E02578C2B255406A009A5A000A22
:100390005040641C0A46491E002AF3DC30BD0000B0
:1003A000024801680029FCD0704700000C000020C2
:1003B000C068884201D10120704700207047C160A9
:1003C000704708220029016801D0114300E09143E1
:1003D000016070473EB5012500240F4968042B4693
:1003E0002246FFF79BFF072229020220FFF7EEFEBD
:1003F000072269020220FFF7E9FE69460C704C7083
:100400008D705020054C0881204600F00FF8012126
:100410002046FFF7D6FF3EBD0140000000800440AB
:10042000C068084000D0012070470000FEB50446B7
:100430000E460878497800250843B17822682F468F
:1004400085239A431143084320603089A0601F48E8
:10045000844201D1002008E01D48844201D10220DD
:1004600003E01C48844203D13620FFF73DFF0546D8
:10047000206803218903084023D001218903401A01
:1004800021D0884200D10927716814204143E80037
:1004900028180191FFF772FEC11BF07800900E1A28
:1004A0000B2068430199FFF769FEC11B0098081AE9
:1004B000002E00DA0026002800DA002026616061A4
:1004C000FEBD0627E0E70827DEE7000000800440C5
:1004D00000900440008000408069C0B27047000076
:1004E00010B500210248FFF76CFFFFF773FF10BD46
:1004F0000080044081617047F8B564242E4E2F4D72
:100500002F4F21E0F968880505D5012149023846B9
:10051000FFF755FF18E0480303D53846FFF7DCFF27
:1005200012E0C8030CD5002068703846FFF7D4FFEE
:1005300069787054491CC8B268701228F5D903E074
:10054000641E2406240E36D01E493846FFF730FFBD
:100550000028D7D003E0641E2406240E2BD00921E6
:1005600009043846FFF724FF0028F4D068781228E1
:100570000DD200243846FFF7AFFF014668783154AA
:10058000401CC0B268701228F4D36C70F2E70121ED
:1005900009043846FFF744FF002806D100F0F4F8BC
:1005A00003E0641E2406240E05D002213846FFF71E
:1005B000FFFE0028F5D0F8BD260000200000002036
:1005C0000080044004000800F8B56424264F274E3C
:1005D000274D10E0E96828468A0306D53278B95CD1
:1005E000521C3270FFF786FF05E088022DD5641E8D
:1005F0002406240E29D01F492846FFF7D9FE0028DB
:10060000E8D003E0641E2406240E1ED01521490400
:100610002846FFF7CDFE0028F4D0307812281AD8EB
:1006200000243078395C401C30702846FFF762FFA8
:1006300030781228F5D33470F3E731462846FFF7B7
:10064000EFFE002802D0FFF74BFFF8BD641E240622
:10065000240E02D1F8BD0126F60402212846FFF738
:10066000A7FE0028E9D0F8BD1400002000000020FB
:100670000080044004002A007047704770477047AC
:10068000F0B530491020C8602F48016B402739432E
:100690000163426A79018A43426242680A434260C6
:1006A0008168C908C907FBD04168C908C900C91CCD
:1006B0004160416B4907490F0329FAD1234C216856
:1006C000C908C900491C21600025056242686115FE
:1006D0008A43426002684E10324302604268082337
:1006E0009A43426002680A430260026BBA430263A3
:1006F0000F22D20582618269CB041A4382610268AB
:100700003243026042680A43426081684908C9076F
:10071000FBD02168C908C900C91C21600562416875
:10072000C908C900491C4160416B4907490F0129AB
:10073000FAD121681022114321604168920191434E
:100740004160F0BD00810840008008400002084080
:1007500030B47446641E2578641CAB4200D21D463A
:10076000635D5B00E31830BC184702E008C8121F45
:1007700008C1002AFAD170477047002001E001C18A
:10078000121F002AFBD1704710B5094A002804D077
:10079000012805D00020C04310BD0121490301E01C
:1007A000012189031046FFF7D7FD002010BD00008E
:1007B00000200B40FFF70EFE00F00CF8044800216B
:1007C000C17101724172FFF797FE00F045F8FAE738
:1007D0000000002070B50122540321461046FFF7A7
:1007E000F5FC0122950329461046FFF7EFFC0F4E5A
:1007F000002221463046FFF7BBFD00222946304645
:10080000FFF7B6FD21463046FFF7B0FD29463046DA
:10081000FFF7ACFD012221463046FFF79FFD012284
:1008200029463046FFF79AFD70BD000000200B40BE
:10083000F8B506ACE0CC074C20706170A270E57092
:1008400023716671A7710998E071FFF7BDFE002062
:10085000F8BD00001400002010B586B00F4C09222E
:10086000E2700321A17000202071E0716B461974C1
:100870005A74987404A8FFF765FD030A6371C1B246
:10088000A171E07901900290009103902279E178C2
:10089000A078FFF7CDFF06B010BD000000000020DB
:1008A0000000C1C081C1400101C3C003800241C238
:1008B00001C6C006800741C70005C1C581C4400408
:1008C00001CCC00C800D41CD000FC1CF81CE400EB8
:1008D000000AC1CA81CB400B01C9C009800841C8C8
:1008E00001D8C018801941D9001BC1DB81DA401A38
:1008F000001EC1DE81DF401F01DDC01D801C41DC08
:100900000014C1D481D5401501D7C017801641D637
:1009100001D2C012801341D30011C1D181D0401047
:1009200001F0C030803141F10033C1F381F2403237
:100930000036C1F681F7403701F5C035803441F407
:10094000003CC1FC81FD403D01FFC03F803E41FEB7
:1009500001FAC03A803B41FB0039C1F981F84038C7
:100960000028C1E881E9402901EBC02B802A41EA37
:1009700001EEC02E802F41EF002DC1ED81EC402C07
:1009800001E4C024802541E50027C1E781E6402637
:100990000022C1E281E3402301E1C021802041E047
:1009A00001A0C060806141A10063C1A381A2406237
:1009B0000066C1A681A7406701A5C065806441A407
:1009C000006CC1AC81AD406D01AFC06F806E41AEB7
:1009D00001AAC06A806B41AB0069C1A981A84068C7
:1009E0000078C1B881B9407901BBC07B807A41BA37
:1009F00001BEC07E807F41BF007DC1BD81BC407C07
:100A000001B4C074807541B50077C1B781B6407636
:100A10000072C1B281B3407301B1C071807041B046
:100A20000050C190819140510193C0538052419236
:100A30000196C056805741970055C1958194405406
:100A4000019CC05C805D419D005FC19F819E405EB6
:100A5000005AC19A819B405B0199C05980584198C6
:100A60000188C04880494189004BC18B818A404A36
:100A7000004EC18E818F404F018DC04D804C418C06
:100A80000044C184818540450187C0478046418636
:100A90000182C042804341830041C1818180404046
:100AA000C00A000000000020140000006A070000D7
:100AB000D40A000014000020240200007A0700007D
:100AC0000000000000000000000000000000000026
:040AD0000000000022
:04000005000000C136
:00000001FF
