:020000040000FA
:1000000038020020C10000003D06000091030000FE
:10001000FFFFFFFFFFFFFFFFFFFFFFFFFFFFFFFFF0
:10002000FFFFFFFFFFFFFFFFFFFFFFFF4106000095
:10003000FFFFFFFFFFFFFFFF3F060000430600003A
:1000400035010000350100003501000035010000D8
:1000500035010000350100003501000035010000C8
:1000600035010000350100003501000035010000B8
:1000700035010000350100003501000035010000A8
:100080003501000035010000350100003501000098
:100090003501000035010000350100003501000088
:1000A0003501000035010000350100003501000078
:1000B0003501000035010000350100003501000068
:1000C0001D4880471D4880471D4800471D4801695D
:1000D000002908D14169002905D18169002902D18F
:1000E000C169002909D01848C1680901090D002912
:1000F0000ED005290CD006290AD0BFF34F8F134824
:100100001349016013491248C860BFF34F8FFEE7DF
:100110000E4801680E48884200D070470E480F49CB
:1001200001600A480E4901607047FEE7FEE7FEE7FE
:10013000FEE7FEE7FEE70000CD00000045060000F8
:100140006501000000030840800108400000002015
:100150000400FA0500ED00E0008108400100000005
:10016000000000000448854600F01EF800480047E3
:100170004D070000C046C0463802002030B50B468F
:10018000014600202022012409E00D46D5409D4271
:1001900005D31D469540491B2546954040191546F7
:1001A000521E002DF1DC30BD064C0125064E05E047
:1001B000E36807CC2B430C3C98471034B442F7D388
:1001C000FFF7D4FF5408000074080000F0B596460D
:1001D0000A461349C000461800230025FF20984016
:1001E0002C46104216D00020012199408C46114621
:1001F000C1406746394206D087000F21B9400D4300
:100200007146B9400C43401C0828F0D33068A8431D
:10021000204330600833361D082BDEDDF0BD0000C2
:100220002020024070B5134E0446706B45076D0FD9
:1002300000F024F8104920602B0000F06BFA08143D
:1002400005070714140E1114606000E06160306A45
:1002500005280AD36068410909E00120C003F3E7DB
:100260007D200002F0E70020EEE76168C140A16058
:1002700070BD00000080084000127A000D4A10682E
:10028000D069C10F5068400AC007C00F11D00A489A
:100290009369DB00DB0FD84000290AD19169C90DB1
:1002A0000907090F00D1102192695202920F4843A9
:1002B000D04070470080084000127A001EB5420905
:1002C0000A4B92000021D2182E2800D10221C0062C
:1002D000C00E1268032383401A40C2405418684677
:1002E000FFF7A0FF0298E0401EBD000038800840E4
:1002F000F0B5084F7C6AFD6A3E6B84438D4396439C
:10030000002B02D004430D4316437C62FD623E6322
:10031000F0BD0000008008400020074A014611544B
:10032000401C1228FBDB044A0020123A1154401CE6
:100330001228FBDB7047000022000020002A026820
:1003400001D00A4300E08A4302607047416270476F
:10035000002A01D0416270478162704730B5034680
:1003600009480A4C0DE01A78504000225B1CC50772
:1003700002D04008604000E04008521CD2B2082A77
:10038000F5D3491EEFD230BDFFFF000001A00000F1
:10039000024801680029FCD0704700000C000020D2
:1003A000C068884201D10120704700207047C160B9
:1003B000704708220029016801D0114300E09143F1
:1003C000016070473EB5012500240F4968042B46A3
:1003D0002246FFF78DFF072229020220FFF7F6FED3
:1003E000072269020220FFF7F1FE69460C704C708B
:1003F0008D705020054C0881204600F00FF8012137
:100400002046FFF7D6FF3EBD0140000000800440BB
:10041000C068084000D0012070470000FEB50446C7
:100420000E460878497800250843B17822682F469F
:1004300085239A431143084320603089A0601F48F8
:10044000844201D1002008E01D48844201D10220ED
:1004500003E01C48844203D13620FFF72FFF0546F6
:10046000206803218903084023D001218903401A11
:1004700021D0884200D10927716814204143E80047
:1004800028180191FFF77AFEC11BF07800900E1A30
:100490000B2068430199FFF771FEC11B0098081AF1
:1004A000002E00DA0026002800DA002026616061B4
:1004B000FEBD0627E0E70827DEE7000000800440D5
:1004C00000900440008000408069C0B27047000086
:1004D00010B500210248FFF76CFFFFF773FF10BD56
:1004E0000080044081617047F8B56424264E274D92
:1004F000274F1FE0F968880505D5012149023846D4
:10050000FFF755FF16E0480303D53846FFF7DCFF39
:1005100010E0C8030CD5002068703846FFF7D4FF00
:1005200069787054491CC8B268701228F5D901E086
:10053000641E28D017493846FFF732FF0028D9D06B
:1005400001E0641E1FD0092109043846FFF728FF87
:100550000028F6D0687812280FD200243846FFF71A
:10056000B3FF014668783154401CC0B2687012284D
:10057000F4D36C70F2E7641E05D002213846FFF711
:100580000FFF0028F7D0F8BD220000200000002057
:100590000080044004000800F8B56424234F244D73
:1005A000244E0EE0F16830468A0306D52A78B95CFD
:1005B000521C2A70FFF796FF03E0880229D5641EBB
:1005C00027D01D493046FFF7EBFE0028EAD02878F7
:1005D000122802D321E0641E1BD0152149043046A5
:1005E000FFF7DEFE0028F6D02878395C401C287022
:1005F0003046FFF777FF28781228EED300202870C6
:10060000EBE729463046FFF703FF002802D0FFF74B
:100610005FFFF8BD641E02D1F8BD0125ED04022183
:100620003046FFF7BDFE0028EBD0F8BD10000020DB
:10063000000000200080044004002A00704770473A
:1006400070477047F0B530491020C8602F48016BE3
:10065000402739430163426A79018A434262426812
:100660000A4342608168C908C907FBD04168C908CC
:10067000C900C91C4160416B4907490F0329FAD1E0
:10068000234C2168C908C900491C21600025056266
:10069000426861158A43426002684E10324302602C
:1006A000426808239A43426002680A430260026B70
:1006B000BA4302630F22D20582618269CB041A43D6
:1006C000826102683243026042680A434260816884
:1006D0004908C907FBD02168C908C900C91C2160A5
:1006E00005624168C908C900491C4160416B49075E
:1006F000490F0129FAD12168102211432160416874
:10070000920191434160F0BD0081084000800840A3
:100710000002084030B47446641E2578641CAB4265
:1007200000D21D46635D5B00E31830BC184702E051
:1007300008C8121F08C1002AFAD17047704700206C
:1007400001E001C1121F002AFBD17047FFF73AFEFA
:1007500000F014F8084800218170C17001714171E6
:100760008171C17101724172FFF7D6FDFFF7BCFEC6
:1007700000F046F8FAE700000000002070B5012202
:10078000540321461046FFF721FD01229503294617
:100790001046FFF71BFD0F4E002221463046FFF7A3
:1007A000D7FD002229463046FFF7D2FD21463046CC
:1007B000FFF7CCFD29463046FFF7C8FD0122214650
:1007C0003046FFF7BBFD012229463046FFF7B6FD54
:1007D00070BD000000200B40F8B506ACE0CC074C23
:1007E00020706170A270E37025716671A77109981D
:1007F000E071FFF7D1FE0020F8BD000010000020DE
:10080000F0B5002487B006270094032669460594B6
:1008100025460E744F748C74314604A8FFF79EFD74
:10082000010A00900A48417100998171084988794C
:1008300000900195029503954B7939463046059A0B
:10084000FFF7CAFF641CE4B2122CEFD907B0F0BD69
:1008500000000020740800000000002010000000CC
:100860002E0700008408000010000020280200006D
:100870003E07000000000000000000000000000033
:040880000000000074
:04000005000000C136
:00000001FF
