:020000040000FA
:1000000018020020C10000006D0600005D04000021
:10001000FFFFFFFFFFFFFFFFFFFFFFFFFFFFFFFFF0
:10002000FFFFFFFFFFFFFFFFFFFFFFFF7106000065
:10003000FFFFFFFFFFFFFFFF6F06000073060000DA
:1000400035010000350100003501000035010000D8
:1000500035010000350100003501000035010000C8
:1000600035010000350100003501000035010000B8
:1000700035010000350100003501000035010000A8
:100080003501000035010000350100003501000098
:100090003501000035010000350100003501000088
:1000A0003501000035010000350100003501000078
:1000B0003501000035010000350100003501000068
:1000C0001D4880471D4880471D4800471D4801695D
:1000D000002908D14169002905D18169002902D18F
:1000E000C169002909D01848C1680901090D002912
:1000F0000ED005290CD006290AD0BFF34F8F134824
:100100001349016013491248C860BFF34F8FFEE7DF
:100110000E4801680E48884200D070470E480F49CB
:1001200001600A480E4901607047FEE7FEE7FEE7FE
:10013000FEE7FEE7FEE70000CD00000075060000C8
:100140006501000000030840800108400000002015
:100150000400FA0500ED00E0008108400100000005
:10016000000000000348854600F026F800480047DC
:10017000950700001802002070B50446002903D03E
:1001800000202022012310E0002801D00020C043DD
:10019000C046C0460DE02546D5408D4205D30D46EC
:1001A0009540641B1D46954040191546521E002D72
:1001B000F1DC214670BD0000064C0125064E05E02D
:1001C000E36807CC2B430C3C98471034B442F7D378
:1001D000FFF7CCFFF007000010080000F0B582B078
:1001E00001920A46C000164BC01800240AE00168BC
:1001F000B14321430160009C21460831001D002CC1
:100200000C461AD11346E3401B06F5D00125009495
:10021000A54000273C463E463B4603E03F1D5B1C95
:10022000202FE4D01146D9402942F7D00199B94096
:100230000C430F21B9400E43F0E702B0F0BDC046B9
:100240002020024070B50446114D6E6900F022F87E
:10025000206007213140491E062909D879440979CF
:1002600049008F440C03030505070A00194806E0FE
:10027000002004E00120C00301E07D200002606056
:100280002968052900D30521C840A06070BDC0467B
:10029000208008400E490846183800684A68084619
:1002A00014380068800501D4002070470868C00039
:1002B000C30F0848D840002A09D40A685201120F17
:1002C00000D11022504309684902890FC840704785
:1002D0001880084000127A00B0B584B00446400986
:1002E00080000949455801A8FFF7ACFF1F202040B6
:1002F000032181402940C1402E2C00D1891C039844
:10030000C84004B0B0BDC0463880084070B50C4C41
:100310002568002B01D0054300E08543A668E0680E
:100320002560002B01D00E4300E08E43A660002B19
:1003300002D01043E06070BD9043E06070BDC046E5
:1003400024800840B0B503460120002A08D00C786C
:100350001D78A54205D1521E491C5B1C002AF6D10E
:10036000B0BD0020B0BD002A03D002680A4302607D
:10037000704702688A430260704770B500252C46BA
:100380002B4603E0AD1C4908202D08D0CE07F9D03C
:100390000326AE4034431646AE403343F2E741698C
:1003A000A143416141691943416170BDB0B58468A1
:1003B00025468D43C368012A04D08B43002A04D10B
:1003C0000C4303E00B432C4600E02C468460C360E2
:1003D000B0BD000070B506461E48855D284600F099
:1003E000BDF91048825D700019490C5A2846214613
:1003F000FFF7F4FE304600F017F8A80016490D5834
:10040000022228462146FFF7D1FF01262846214631
:100410003246FFF7B2FF284621463246FFF7A3FFD8
:1004200070BDC046E40700004100094A515A094A1C
:10043000105C8000084A1058416270474100044A2D
:10044000515A044A105C8000034A10588162704778
:10045000EA070000E7070000CC0700000248016837
:100460000029FCD07047C04608000020C068411A2F
:10047000484248417047C16070474A1E9141C900D7
:10048000026808239A4351180160704770B584B020
:1004900010490025012428462A462346FFF736FF47
:1004A0008021072620463246FFF798FE210220468B
:1004B0003246FFF793FE01A9602008818C700D8001
:1004C000664D284600F008F828462146FFF7D5FF7C
:1004D00004B070BD02400000F0B583B00D46044684
:1004E0000068852188432978014368780843A97802
:1004F000014321602889A0602248844208D000235B
:100500002148844205D05548844206D1022300E0A8
:1005100036231846FFF7E0FE0346032081032068D8
:1005200008400121CA03904207D08903884207D0BE
:10053000002808D10620029007E00920029004E07C
:100540000820029001E000200290092058436968C9
:1005500014274F4339460193FFF70EFE029E801B7E
:10056000ED78401BC117884320610B200199484357
:100570003946FFF701FE801B401BC11788436061AD
:1005800003B0F0BD00800040008004408069C0B22C
:10059000704781617047000070B5304C114D2046A6
:1005A0002946FFF763FF0028F9D00F4D287803286C
:1005B00011D82C4E092001042046FFF757FF0028D0
:1005C000F8D02046FFF7E2FF29787054481C2870C5
:1005D00028780428EED302212046FFF747FF0028A1
:1005E000F9D070BD0400080010000020F0B581B003
:1005F00015204504194C291D2046FFF737FF002818
:10060000F9D0174E3078032810D8164F20462946C7
:10061000FFF72CFF0028F9D03078411C3170395C8D
:100620002046FFF7B6FF30780428EFD301204502BB
:10063000A91C2046FFF71AFF0028F9D020462946BA
:10064000FFF719FF074808490422FFF77BFE4142E4
:100650004841FFF7F3FE01B0F0BDC04600900440F2
:10066000110000200C00002000000020704770479F
:1006700070477047F0B586B035481021059101608C
:100680003448C16A402202921143C1620122D10260
:10069000036A8B43036203680B43036041680907E5
:1006A000FCD501680323049319430423039399435E
:1006B0000160016B072319400329FAD126490C6810
:1006C000144306250195AC430C6000210091C161E3
:1006D00056020468B44304601702041F21683943BA
:1006E000216001680825A943016021683143216028
:1006F000C16A029DA943C1620F21C9054161110769
:1007000045690D43456121683943216001683143E2
:10071000016041688907FCD50F4C2168049D29437D
:10072000039DA94321600099C16101681143019DA6
:10073000A9430160016B19400129FBD12168059B88
:1007400019432160910202688A43026006B0F0BD3D
:100750000C810840048008400002084010B582B0B7
:10076000694600228A80009201230B5408781840C1
:100770004C78E407A40F20188C78E407640F001964
:10078000C978C907090F401800049903FFF7BEFD97
:1007900002B010BD0020FFF71DFE0120FFF71AFE7A
:1007A000FFF774FEFFF7F8FEFFF720FFFEE702E019
:1007B00008C8121F08C1002AFAD1704770470020EC
:1007C00001E001C1121F002AFBD1704700000B405D
:1007D00000200B4000400B4000600B400000000078
:1007E000000000000101010302020200004000803D
:1007F000100800000000002004000000AE07000008
:10080000140800000800002010020000BE070000CD
:0408100001020304DA
:04000005000000C136
:00000001FF
